:0C800000F8B500BFF8BC08BC9E467047F5
:10800C00FEE7000008B540F2F400074BC0F2010097
:10801C001B1A062B00D808BD40F20003C0F2000367
:10802C00002BF8D09847F6E7F700010008B540F2AE
:10803C00F40040F2F403C0F20100C0F201031B1A79
:10804C009B1003EBD373591000D108BD40F2000212
:10805C00C0F20002002AF8D09047F6E710B540F2C3
:10806C00F404C0F20104237873B9FFF7CBFF40F29C
:10807C000003C0F200032BB148F2E400C0F2000090
:10808C00AFF300800123237010BD00BF08B540F290
:10809C000003C0F200034BB148F2E40040F2F801D7
:1080AC00C0F20000C0F20101AFF3008040F2F0001A
:1080BC00C0F2010003682BB140F20003C0F20003D0
:0C80CC0003B19847BDE80840FFF7B0BFC3
:0C80D800F8B500BFF8BC08BC9E4670471D
:0480E4000000000098
:020000021000EC
:0400E80099800000FB
:0400EC006980000027
:0400F000000000000C
:040000030000000CED
:00000001FF
